:040000008A11112828
:10000800FE00030E83120313B9000408BA000A089D
:10001800BB007F08BC008A118E2A8A1113288A1116
:10002800FE278A11DF008313BD308400CD308A1586
:100038001F278A11433084005F308A151F278A11D1
:1000480083018A11522E83160313BB008A110526D9
:100058008A11831203134A08031933283428E6281F
:100068003D30831603133B06031D3B283C28BE285E
:100078005B308A11A1248A11831603132308B60062
:100088002208B5003608803AFF0080307F02031D41
:100098004F2821303502031C52285328B8288316CC
:1000A80003133608803AFF0080307F02031D5E2864
:1000B800FF303502031861286228B8288312031319
:1000C8004608803AFF0080307F02031D6D281030FB
:1000D8004502031870287128B828831203134508AD
:1000E80083160313B90087288316031339084A3E79
:1000F800840083130008FF0039084B3E84007F0802
:1001080080000130B9023908831203134802031C26
:100118008E288F28782848084B3E840083160313BE
:100128003508831380001030831203134802031824
:100138009E289F28A3280130FF007F08C80746088B
:10014800803AFF0080307F02031DAC281030450242
:100158000318AF28B028B828013083120313C50745
:100168000318C60A0030C60783120313CA01C9015F
:10017800DB018D2A30303B02031CC328C4288D2A9A
:100188003A303B020318C928CA288D2A0330831243
:10019800031349020318D128D2288D2A49085B3E47
:1001A8008400831603133B08831380000130FF008B
:1001B8007F0883120313C90749085B3E8400800146
:1001C8008D2A8D2A2B30831603133B06031DED2839
:1001D800EE28F52883120313CA01CA0AC901DB01F4
:1001E8008D2A2F303B06031DFA28FB280529831288
:1001F800031348080319012902298D2A0130C8026E
:100208008D2A58303B06031D0A290B291F29831202
:1002180003134608803A803C031D14294508480208
:100228000318172918298D2A0130FF007F08831227
:100238000313C8078D2A43303B06031D24292529AB
:10024800852983120313480883160313BA003D292E
:10025800831603133A084C3E840083130008FF00FA
:100268003A084B3E84007F0880000130FF007F0879
:10027800BA07831203134608803A803C031D4829B5
:100288004508831603133A02031C4B294C292C29D1
:10029800831203134608803AFF0080307F02031D53
:1002A800572901304502031C5A295B296329FF306D
:1002B80083120313C5070318C60AFF30C607831243
:1002C80003134608803A803C031D6C294508480200
:1002D800031C6F2970298D2A831203134608803A5C
:1002E800FF0080307F02031D7B2901304502031C7B
:1002F8007E297F298D2A831203134508FF3EC800F3
:100308008D2A2D303B06031D8A298B290E2A83123C
:1003180003134608803AFF0080307F02031D9629A8
:1003280001304502031C99299A29E52883120313F1
:1003380048084B3E8400831380014B308A1198266D
:100348008A118A1558278A1183120313C1010130B3
:100358008A15E0278A11443083120313C1008030C4
:10036800C2008A11A6278A1183120313C101023021
:100378008A15E0278A11233083120313C1008030C5
:10038800C2008A11A6278A110B3083160313B40002
:100398002630B3005D30B200B20BD029B30BD029A0
:1003A800B40BD02900008A1558278A118312031329
:1003B800C10101308A15E0278A11633083120313C3
:1003C800C1008030C2008A11A6278A118312031344
:1003D800C10102308A15E0278A11113083120313F4
:1003E800C1008030C2008A11A6278A118312031324
:1003F800C7010030BE00BF001030C0000030C1008F
:100408004B308A1180278A1183120313C501C60154
:10041800C8018D2A3B080319122A132AE5283D3002
:100428003B060319182A192AE528831203134608DC
:10043800803AFF0080307F02031D242A0F304502D6
:100448000318272A282AE528831203134608831647
:100458000313B80083120313450883160313B70068
:10046800482A8316031337084A3E8400831300087A
:10047800FF0037084B3E84007F088000FF30B70735
:100488000318B80AFF30B8073808803A803C031DC3
:10049800512A3708831203134802031C542A552A89
:1004A800352A8312031348084B3E8400831603132E
:1004B8003B08831380000130FF007F088312031379
:1004C800C8070130C5070318C60A0030C607450823
:1004D8004B3E840080018A150D278A118A155827FA
:1004E8008A1183120313C10101308A15E0278A118A
:1004F8004B3083120313C1000030C2008A11A627B3
:100508008A11831203134808C10001308A15E027B5
:100518008A1108008C1D912A922A4F2B1308BD00BE
:10052800141683160313941A9A2A9B2AA42A1419B8
:100538009E2A9F2AA42A83120313C301C4014C2BA9
:10054800941EA72AA82A4C2B1419AB2AAC2A4C2B88
:10055800831203134408803AFF0080307F02031D92
:10056800B72A0F3043020318BA2ABB2A4C2B83122E
:1005780003134308BD3E84003D0883138000013007
:10058800C3070318C40A0030C4073D080319CD2A5D
:10059800CE2AD52A0F3043064404031DD42AD52A6F
:1005A8004C2B4308BD3E840080018A1548278A11D8
:1005B80083120313A30101308A15C4278A11BD30A1
:1005C80083120313A3000030A4008A11C8278A11DC
:1005D80083120313C301C4010130C7000B30831217
:1005E8000313B8002630B7005D30B600B60BFA2A00
:1005F800B70BFA2AB80BFA2A00008A1548278A117D
:1006080083120313A30101308A15C4278A1181308C
:1006180083120313A3008030A4008A11C8278A110B
:1006280083120313A30102308A15C4278A113430B8
:1006380083120313A3008030A4008A11C8278A11EB
:100648000B3083120313B8002630B7005D30B600B4
:10065800B60B2C2BB70B2C2BB80B2C2B00008A15A8
:1006680048278A1183120313A30101308A15C4276E
:100678008A1183120313DF010030B1000130B0008A
:100688008630AF00A030AE008A114D278A114C2B5E
:10069800831203138C113C083B088A003A08840033
:1006A800390E8300FE0E7E0E090083160313A00187
:1006B800A1012108803AFF0080307F02031D662BCC
:1006C80004302002031C692B6A2B6B2B022C103080
:1006D80083120313BE0083160313200A8312031325
:1006E800772B0310BE0DFF3E031D752B3E08FF3A06
:1006F80086000F308316031386001A308312031303
:10070800BF00F830BE00BE0B872BBF0B872B8316AC
:100718000313A201A301013083120313BE00831641
:100728000313220A831203139B2B0310BE0DFF3EF3
:10073800031D992B3E080605031DA32BA42BE22BB2
:100748000130BE0083160313220A83120313AE2B53
:100758000310BE0DFF3E031DAC2B3E080605031912
:10076800B62BB72BA42B8511823083120313BF003D
:10077800DD30BE00BE0BBE2BBF0BBE2B00008312AC
:1007880003138515F030831603138600200883129F
:100798000313BE0002300310BE0DFF3E031DCF2B16
:1007A80001303E07BF008316031322088312031388
:1007B8003F0784008A110E248A11032C0130831606
:1007C8000313A2070318A30A0030A3072308803ADB
:1007D800FF0080307F02031DF32B04302202031C2C
:1007E800F62BF72B8F2BF03083160313860001307E
:1007F800A0070318A10A0030A1075D2B00300800EC
:10080800FF1B0E2C83137F1883170008840A031913
:10081800FF0A080004308A000408840A82070034AA
:100828003734383439342F34343435343634583452
:100838003134323433342D34433430343D342B3472
:10084800643465346C3420346D3461346534733405
:10085800743472346F3420342E3420342E342034DF
:100868002E34003461346C3420346D346134653492
:100878007334743472346F3420342E3420342E346C
:1008880020342E34003470346134723461342034AE
:100898006D34613465347334743472346F342E3487
:1008A8002E342E3400344D3465346E347334613450
:1008B8006A346534203465346E347634693461348E
:1008C80064346F34003445347334703465347234AE
:1008D800613420346434653420346D3465346E34C6
:1008E8002D340034453473347034653472346134D3
:1008F8006E3464346F3420347234653473342D3478
:100908000034643465346C3420346D3461346534B7
:100918007334743472346F342E342E342E340034DD
:100928004534733463347234693462346134203446
:100938007234653473342D34003483160313A900DC
:10094800A701A801A601AC2C0130FF007F08A90768
:10095800290884002030831300060319B42CB52C11
:10096800A82C29088400F7300007A40005302402C9
:10097800031CBF2CC02CA82C290884002D3000068D
:10098800031DC72CC82CCF2CA601A60A0130FF00D6
:100998007F08A907042D290884002B300006031DB1
:1009A800D62CD72C042DCA2C290884002808831299
:1009B8000313BF0083160313270883120313BE0013
:1009C8000A30C0000030C1008A1116278A1183122C
:1009D80003133F0883160313A5008313000883122B
:1009E80003133E0283160313A400031CA503240863
:1009F800303EA70025080318013E003EA800CA2C77
:100A080029088400D0300007A4000A302402031CFF
:100A18000E2D0F2DD82C2608031D132D142D202D37
:100A28002709A4002809A500A40A0319A50A24086F
:100A3800A2002508A300242D2808A3002708A20047
:100A48000800003083160313AB000030AA00003002
:100A5800A9000030A8002308220421042004031957
:100A6800362D372D942DAC01AC0A4F2D0130831251
:100A78000313BE00031083160313A00DA10DA20DCE
:100A8800A30D83120313BE0B3E2D0130FF007F0818
:100A980083160313AC07A31F522D532D3A2D013093
:100AA80083120313BE00031083160313A80DA90DA8
:100AB800AA0DAB0D83120313BE0B572D8316031318
:100AC80023082702031D722D22082602031D722DFA
:100AD80021082502031D722D20082402031C752DF0
:100AE800762D852D2008A4022108031C210FA502BC
:100AF8002208031C220FA6022308031C230FA702A7
:100B0800281401300310A30CA20CA10CA00CFF3E6A
:100B1800031D862D0130AC02031D932D942D532DFA
:100B28002B08A3002A08A2002908A1002808A00071
:100B38000800003083120313AC000030AB00003013
:100B4800AA000030A9002308220421042004031964
:100B5800AE2DAF2DFC2DAD01AD0ABF2D0130A80083
:100B68000310A00DA10DA20DA30DA80BB42D0130EB
:100B7800FF007F08AD07A31FC22DC32DB22D013082
:100B8800A8000310A90DAA0DAB0DAC0DA80BC52D1F
:100B980023082702031DDA2D22082602031DDA2D59
:100BA80021082502031DDA2D20082402031CDD2D4F
:100BB800DE2DED2D2008A4022108031C210FA5021B
:100BC8002208031C220FA6022308031C230FA702D6
:100BD800291401300310A30CA20CA10CA00CFF3E99
:100BE800031DEE2D0130AD02031DFB2DFC2DC32D81
:100BF8002C08A3002B08A2002A08A1002908A0009D
:100C080008000730831603139F00850186011A30F8
:100C180083120313C200F830C100C10B112EC20B9E
:100C2800112E38308A1596278A110730831203133C
:100C3800C2007C30C100C10B1F2EC20B1F2E242EF8
:100C48000F308A1596278A11073083120313C200C2
:100C58007C30C100C10B2E2EC20B2E2E332E01303C
:100C68008A1596278A11033083120313C20097301E
:100C7800C100C10B3D2EC20B3D2E000002308A156B
:100C880096278A11033083120313C2009730C100DC
:100C9800C10B4C2EC20B4C2E000008008A110526F1
:100CA8008A1110308A11EA278A118A1558278A1161
:100CB80083120313C10101308A15E0278A115430C9
:100CC80083120313C1008030C2008A11A6278A113B
:100CD80083120313C10102308A15E0278A1172308A
:100CE80083120313C1008030C2008A11A6278A111B
:100CF8008312031347080319822E832E7C2E8A152C
:100D080027278A118A1159238A1183160313BC00D5
:100D18003C080319902E912E7C2E3C088A1127201E
:100D28008A117C2E8A11112883160313B1008312AD
:100D38000313DF010030C2000130C1008630C0005B
:100D4800A030BF008A11D7268A118A1511278A1167
:100D580020308A1530278A11BD2E310884000008FA
:100D68008A1530278A110130FF007F088316031384
:100D7800B107831603133108840083130008031D89
:100D8800C62EC72EB12E00308A1530278A118A1533
:100D980018278A11013083120313DF0010308A11DB
:100DA800EA278A11080028308312031394003F08A9
:100DB80083160313AD00831203134008831603132D
:100DC800AE0083120313410883160313AF00831286
:100DD8000313420883160313B00002300310AD0D4D
:100DE800AE0DAF0DB00DFF3E031DF22E3008A3006F
:100DF8002F08A2002E08A1002D08A0000030A7008F
:100E08003D30A6000930A5000030A4008A11252530
:100E18008A11831603132008FF3E93009401871557
:100E28000716080083160313A001A10183123E1CB4
:100E38001E2F1F2F2B2F400883160313A0070318FC
:100E4800A10A83120313410883160313A107013073
:100E580083120310C00DC10DFF3E031D2D2F01305D
:100E68000310BF0CBE0CFF3E031D342F3E083F0489
:100E7800031D3F2F402F1A2F8316031321088312B7
:100E88000313BF0083160313200883120313BE0045
:100E9800080028308312031394002E08B2002F088C
:100EA800B3003008B4003108B50002300310B20DA9
:100EB800B30DB40DB50DFF3E031D5A2F3508A30021
:100EC8003408A2003308A1003208A0000030A700AF
:100ED8003D30A6000930A5000030A4008A119D25E8
:100EE8008A11831203132008FF3E8316031393000D
:100EF800940187150716080083160313A00020081D
:100F0800A100952F8316031321088400831203136D
:100F18003E08831380000130FF007F088316031307
:100F2800A107013083120313C0020030031CC10360
:100F3800C102400A031DA42F410A031DA42FA52F97
:100F4800862F0800B92F4208FF00410884008A1143
:100F580004248A118A15AD278A11013083120313DC
:100F6800C1070318C20A0030C207831203134208DC
:100F7800FF00410884008A1104248A11003A031DE5
:100F8800C62FC72FA72F0800DB2F2408FF00230830
:100F980084008A1104248A118A157F278A11013056
:100FA80083120313A3070318A40A0030A4078312AB
:100FB80003132408FF00230884008A1104248A11DB
:100FC800003A031DE82FE92FC92F080083120313E5
:100FD800BE003E08831603139300363083120313B2
:100FE8009400831603139401871507160B178C15A5
:060FF8008B170800013414
:101E1A0083160313860108008A153B278A15831641
:101E2A000313111408008A153B278A158316031316
:101E3A001115080064008001840A0406031900349D
:101E4A000406202FF0308316031386000F30831206
:101E5A0003138600080083120313BE008A153B276A
:101E6A008A15831203133E0893000800831603138E
:101E7A0011081F39031D422F432F3B2F1419462FD8
:101E8A00472F3B2F080001308A1568278A1503302F
:101E9A0083120313A4009730A300A30B522FA40BA1
:101EAA00522F0000080001308A1596278A15033040
:101EBA0083120313C2009730C100C10B622FC20BF9
:101ECA00622F0000080083120313A2000510851078
:101EDA00220886000515033083120313A1009730E8
:101EEA00A000A00B762FA10B762F000083120313FC
:101EFA000511080083120313A20005148510220895
:101F0A0086000515033083120313A1009730A00041
:101F1A00A00B8D2FA10B8D2F000083120313051127
:101F2A00080083120313C0000510851040088600BC
:101F3A000515033083120313BF009730BE00BE0B92
:101F4A00A42FBF0BA42F000083120313051108004E
:101F5A0083120313C0000514851040088600051576
:101F6A00033083120313BF009730BE00BE0BBB2F92
:101F7A00BF0BBB2F00008312031305110800831245
:101F8A000313A40024030319CB2FCC2FD12FC03065
:101F9A00A5000030A600D52F8030A5000030A6008D
:101FAA002508A7002308FF007F08A70727088A1526
:101FBA0068278A15080083160313A0002003031953
:101FCA00E72FE82FED2FC030A1000030A200F12F3B
:101FDA008030A1000030A2002108A300831203135D
:101FEA004108FF007F0883160313A30723088A15F5
:061FFA0096278A1508007D
:02400E00793FF8
:00000001FF
