:040000008A11112828
:10000800FE00030E83120313B9000408BA000A089D
:10001800BB007F08BC008A11AD2A8A1113288313FC
:100028004C3084005E308A15D9278A11A0308400AC
:10003800BA308A15D9278A1183018A1123288A118F
:10004800DE258A118A15F5278A11003083160313D5
:10005800BD000130BC008630BB00A030BA008A1158
:100068002B268A118A15E1278A118A117E238A1183
:1000780083160313CF002D304F06031D442845284F
:1000880004292208031949284A289F2A8A15C327C0
:100098008A11103083120313BE000030BF008A1586
:1000A800D1278A1183160313C501C601792883163F
:1000B80003134508A53E840083130008C200C3014A
:1000C800420883120313BE008316031343088312E6
:1000D8000313BF008A15D1278A1101308316031331
:1000E800C5070318C60A0030C6074608803AC2008A
:1000F80080304202031D822822084502031C8528FD
:1001080086285B28003083120313BE00BF008A15BF
:10011800D1278A118A15CA278A118A15BF278A11F9
:100128008A11D2278A1183120313C10101308A115F
:100138002A278A118A15BF278A114230831203138E
:10014800C1008030C2008A11C8268A1183120313A5
:10015800C10102308A112A278A1111308312031330
:10016800C1008030C2008A11C8268A110B3083165C
:100178000313C4002630C3005D30C200C20BC2287E
:10018800C30BC228C40BC22800008A11D2278A11C7
:10019800003083120313BE00BF001130C0000030CE
:1001A800C100A5308A110C278A1183160313A201F6
:1001B800A3010130A40020308A11BE278A118312BE
:1001C8000313C10101308A112A278A115230831280
:1001D8000313C1008030C2008A11C8268A11831215
:1001E8000313C10102308A112A278A11223083128F
:1001F8000313C1008030C2008A11C8268A119F2AC1
:100208004F080319082909299F2A2D304F06031979
:100218000E290F299F2A2108031913291429942923
:100228003D304F06031D19291A299429B6308A1121
:1002380096248A1183120313450883160313C800F2
:1002480083120313440883160313C7004808803A2F
:10025800FF0080307F02031D332921304702031C31
:10026800362937298E29831603134808803AFF0058
:1002780080307F02031D4229FF30470203184529B9
:1002880046298E29103083160313220203184D299C
:100298004E298E292208C200C3014208C90043081A
:1002A800CA006929831603134908A43E84008313EE
:1002B8000008FF004908A53E84007F088000FF3041
:1002C800C9070318CA0AFF30CA074A08803A803C9F
:1002D800031D702949082302031C73297429562910
:1002E800831603132308A53E840047088313800060
:1002F8000130FF007F08A2070F3023020318852969
:1003080086298A290130FF007F08A3072208A53E15
:100318008400800183160313A101A001B601822A7B
:100328002108031998299929BA2930304F02031C4A
:100338009E299F29BA293A304F020318A429A529D2
:10034800BA29033020020318AA29AB29BA292008A0
:10035800B63E84004F08831380000130FF007F08F9
:10036800A0072008B63E84008001822A2108031DC8
:10037800BE29BF29822A742AA101A10AA001B601B7
:10038800822A23080319C929CA29822A0130A3020B
:10039800822A220823020318D229D329822A01306B
:1003A800FF007F08A307822A220823020318DD29F9
:1003B800DE29822A2308C200C3014208CB00430871
:1003C800CC00F929831603134B08A63E8400831337
:1003D8000008FF004B08A53E84007F08800001301C
:1003E800CB070318CC0A0030CC074C08803AC2006F
:1003F80080304202031D022A22084B02031C052AF0
:10040800062AE629013083160313A202822A0F3036
:1004180022020318102A112A532A2208C200C301F3
:100428004208CD004308CE002C2A831603134D083A
:10043800A43E840083130008FF004D08A53E8400F5
:100448007F088000FF30CD070318CE0AFF30CE07A3
:100458004E08803A803C031D332A4D082302031CB2
:10046800362A372A192A831603132308A53E84003F
:100478004F08831380000F3023020318442A452AAB
:10048800492A0130FF007F08A30710302202031811
:100498004E2A4F2A532A0130FF007F08A2078A15E7
:1004A800BF278A118A11D2278A1183120313C10127
:1004B80001308A112A278A11A53083120313C1003B
:1004C8000030C2008A11C8268A1183160313230834
:1004D80083120313C10001308A112A278A11822A44
:1004E8004F082B3A0319C029043A0319C5296C3A55
:1004F8000319D8291B3A0319CD290B2A8A11D227A7
:100508008A1183120313C10101308A112A278A1123
:10051800A53083120313C1000030C2008A11C82617
:100528008A1183160313230883120313C1000130B1
:100538008A112A278A11823083160313C300DD30FB
:10054800C200C20BA52AC30BA52A000036288A11AF
:1005580011288C1DB02AB12A742B1308BD0014165B
:1005680083160313941AB92ABA2AC32A1419BD2A5E
:10057800BE2AC32A83120313CC01CD01712B941E0A
:10058800C62AC72A712B1419CA2ACB2A712B83129F
:1005980003134D08803AFF0080307F02031DD62ADE
:1005A8000F304C020318D92ADA2A712B831203134D
:1005B8004C084E3E84003D08831380000130CC0770
:1005C8000318CD0A0030CD073D080319EC2AED2A9F
:1005D800F42A0F304C064D04031DF32AF42A712B1C
:1005E8004C084E3E840080018A15BB278A118A1167
:1005F800E2278A1183120313A30101308A114627C7
:100608008A114E3083120313A3000030A4008A110C
:10061800EA268A110B3083120313B8002630B7007C
:100628005D30B600B60B162BB70B162BB80B162B76
:1006380000008A11E2278A1183120313A3010130F3
:100648008A1146278A11613083120313A300803070
:10065800A4008A11EA268A1183120313A301023027
:100668008A1146278A11323083120313A30080307F
:10067800A4008A11EA268A1183120313CC01CD0142
:100688000B3083120313B8002630B7005D30B60074
:10069800B60B4C2BB70B4C2BB80B4C2B00008A110C
:1006A800E2278A1183120313A30101308A11462716
:1006B8008A118A15EA278A1183160313A4010030C8
:1006C80083120313B1000130B0008630AF00A030B0
:1006D800AE008A116E268A11712B831203138C11B6
:1006E8003C083B088A003A088400390E8300FE0E55
:1006F8007E0E090083120313C001C1014108803A2C
:10070800FF0080307F02031D8B2B04304002031C46
:100718008E2B8F2B902B172C103083120313BE00B7
:10072800400A982B0310BE0DFF3E031D962B3E0872
:10073800FF3A86000F308316031386001A3083129F
:100748000313BF00F830BE00BE0BA82BBF0BA82BAD
:1007580083120313C201C301013083120313BE00C5
:10076800420AB82B0310BE0DFF3E031DB62B3E08F0
:100778000605031DC02BC12BF72B0130BE00420A12
:10078800C72B0310BE0DFF3E031DC52B3E080605F3
:100798000319CF2BD02BC12B851182308312031361
:1007A800BF00DD30BE00BE0BD72BBF0BD72B000020
:1007B800831203138515F030831603138600831202
:1007C80003134008BE0002300310BE0DFF3E031D98
:1007D800E82B01303E07BF0042083F0784008A111A
:1007E80023248A11182C0130C2070318C30A0030C9
:1007F800C3074308803AFF0080307F02031D062CA0
:1008080004304202031C092C0A2CB02BF03083164A
:1008180003138600013083120313C0070318C10AAB
:100828000030C107822B00300800FF1B232C8313E4
:100838007F1883170008840A0319FF0A0800043088
:100848008A000408840A820700343734383439347B
:100858002F34343435343634583431343234333434
:100868002D34433430343D342B3461346C342034EB
:100878006534733463346C34613476346F342034C3
:100888002E3420342E3420342E340034643465342D
:100898006C3420346534733463346C3461347634A6
:1008A8006F3420342E342E342E34003470346134B6
:1008B8007234613420346534733463346C34613495
:1008C80076346F342E342E342E3400344D3465345F
:1008D8006E34733461346A346534203465346E346C
:1008E80076346934613464346F3400344534733495
:1008F80070346534723461346E3464346F34203447
:100908007234653473342D340034453473346334AD
:100918007234693462346134203472346534733427
:100928002D34003483120313CB00C901CA01C80156
:10093800A12C0130FF007F08CB074B088400203032
:10094800831300060319A92CAA2C9D2C4B0884009C
:10095800F7300007C60005304602031CB42CB52C3E
:100968009D2C4B0884002D300006031DBC2CBD2C8B
:10097800C42CC801C80A0130FF007F08CB07ED2C42
:100988004B0884002B300006031DCB2CCC2CED2CFF
:10099800BF2C4B0884004A08BF004908BE000A3033
:1009A800C0000030C1008A11A1268A1183120313E6
:1009B8003F08C700831300083E02C600031CC70394
:1009C8004608303EC90047080318013E003ECA00E9
:1009D800BF2C4B088400D0300007C6000A304602FE
:1009E800031CF72CF82CCD2C4808031DFC2CFD2CDF
:1009F800092D4909C6004A09C700C60A0319C70ACA
:100A08004608C4004708C5000D2D4A08C500490816
:100A1800C4000800003083120313CA000030C90064
:100A28000030C8000030C700410840043F043E04BD
:100A380003191F2D202D6D2DCB01CB0A302D013030
:100A4800C6000310BE0DBF0DC00DC10DC60B252D70
:100A58000130FF007F08CB07C11F332D342D232D14
:100A68000130C6000310C70DC80DC90DCA0DC60B4D
:100A7800362D41084502031D4B2D40084402031D35
:100A88004B2D3F084302031D4B2D3E084202031C19
:100A98004E2D4F2D5E2D3E08C2023F08031C3F0F0E
:100AA800C3024008031C400FC4024108031C410F45
:100AB800C502471401300310C10CC00CBF0CBE0C9A
:100AC800FF3E031D5F2D0130CB02031D6C2D6D2DE4
:100AD800342D4A08C1004908C0004808BF0047082B
:100AE800BE000800003083120313AC000030AB00D6
:100AF8000030AA000030A9002308220421042004A1
:100B08000319872D882DD52DAD01AD0A982D0130FB
:100B1800A8000310A00DA10DA20DA30DA80B8D2DEB
:100B28000130FF007F08AD07A31F9B2D9C2D8B2D47
:100B38000130A8000310A90DAA0DAB0DAC0DA80B30
:100B48009E2D23082702031DB32D22082602031D0C
:100B5800B32D21082502031DB32D20082402031CF0
:100B6800B62DB72DC62D2008A4022108031C210F7D
:100B7800A5022208031C220FA6022308031C230F28
:100B8800A702291401300310A30CA20CA10CA00C7D
:100B9800FF3E031DC72D0130AD02031DD42DD52DF9
:100BA8009C2D2C08A3002B08A2002A08A1002908C4
:100BB800A00008000730831603139F0085018601F3
:100BC8001A3083120313C200F830C100C10BEA2D9A
:100BD800C20BEA2D38308A1179278A11073083121F
:100BE8000313C2007C30C100C10BF82DC20BF82DD5
:100BF800FD2D0F308A1179278A11073083120313CC
:100C0800C2007C30C100C10B072EC20B072E0C2E70
:100C180001308A1179278A11033083120313C20025
:100C28009730C100C10B162EC20B162E00000230E1
:100C38008A1179278A11033083120313C20097306F
:100C4800C100C10B252EC20B252E0000080028303C
:100C5800831203139400831603133A08BE003B085B
:100C6800BF003C08C0003D08C10002300310BE0DA3
:100C7800BF0DC00DC10DFF3E031D3A2E4108831262
:100C88000313C10083160313400883120313C00023
:100C9800831603133F0883120313BF00831603133D
:100CA8003E0883120313BE000030C5003D30C40067
:100CB8000930C3000030C2008A110E258A11831240
:100CC80003133E08FF3E8316031393009401871510
:100CD8000716080028308312031394002E08B20068
:100CE8002F08B3003008B4003108B50002300310F3
:100CF800B20DB30DB40DB50DFF3E031D7B2E3508A7
:100D0800A3003408A2003308A1003208A000003074
:100D1800A7003D30A6000930A5000030A4008A11C4
:100D280076258A11831203132008FF3E83160313C6
:100D38009300940187150716080083120313C20154
:100D4800C3013E1CA82EA92EAF2E4008C2070318C7
:100D5800C30A4108C30701300310C00DC10DFF3E8F
:100D6800031DB02E01300310BF0CBE0CFF3E031D47
:100D7800B72E3E083F04031DC22EC32EA52E4308DE
:100D8800BF004208BE000800DB2E4208FF004108F1
:100D980084008A1119248A118A1162278A11013064
:100DA80083120313C1070318C20A0030C207831253
:100DB80003134208FF00410884008A1119248A118C
:100DC800003A031DE82EE92EC92E0800FD2E24083E
:100DD800FF00230884008A1119248A118A11902798
:100DE8008A11013083120313A3070318A40A0030E1
:100DF800A407831203132408FF00230884008A1120
:100E080019248A11003A031D0A2F0B2FEB2E080014
:100E180083120313C2004208C3001B2F4308840037
:100E28003E08831380000130FF007F08C3070130AC
:100E3800C0020030031CC103C102400A031D282F51
:100E4800410A031D282F292F122F0800831203138C
:100E5800C20042030319312F322F372FC030C3008D
:100E68000030C4003B2F8030C3000030C40043086A
:100E7800C5004108FF007F08C50745088A11792782
:100E88008A11080083120313A400240303194D2FA9
:100E98004E2F532FC030A5000030A600572F8030AA
:100EA800A5000030A6002508A7002308FF007F083A
:100EB800A70727088A11A7278A1108008312031396
:100EC800C0000514851040088600051503308312FC
:100ED8000313BF009730BE00BE0B702FBF0B702FDF
:100EE8000000831203130511080083120313C000C6
:100EF800051085104008860005150330831203137A
:100F0800BF009730BE00BE0B872FBF0B872F000096
:100F1800831203130511080083120313A20005149A
:100F28008510220886000515033083120313A100DB
:100F38009730A000A00B9E2FA10B9E2F00008312BC
:100F480003130511080083120313A200051085106E
:100F5800220886000515033083120313A100973079
:100F6800A000A00BB52FA10BB52F0000831203130F
:100F78000511080083120313BE003E0883160313ED
:100F880093003630831203139400831603138C15D1
:100F98000B178B17940187150716080001308A1163
:100FA80079278A11033083120313C2009730C100D6
:100FB800C10BDC2FC20BDC2F0000080001308A11A6
:100FC800A7278A11033083120313A4009730A300C4
:100FD800A30BEC2FA40BEC2F0000080083160313BF
:100FE80011081F39031DF92FFA2FF22F1419FD2F9D
:060FF800FE2FF22F08009D
:101F760083160313860108008316031386010800DF
:101F86008A11F2278A1583160313111408008A1181
:101F9600F2278A1583160313111508008A11F227F2
:101FA6008A15831203133E0893000800640080011B
:101FB600840A0406031900340406DA2FF030831667
:101FC600031386000F30831203138600080083165E
:101FD6000313851185010F308600F0308312031339
:101FE6008600080083160313851185010F308600CD
:0A1FF600F030831203138600080088
:02400E00793FF8
:00000001FF
