:10000000F92B00308A000408840A82070034373450
:10001000383439342F343434353436345834313478
:0E002000323433342D34433430343D342B34F9
:1001B200831686010800F030831686000F30831202
:1001C2008600080064008001840A040603190034D2
:1001D2000406E4288316851185010F308600F0306D
:1001E200831286000800013001210330831290003F
:1001F20097308F008F0BFB28900BFB2800290800FB
:1002020083128E00051085100E0886000515033036
:100212008D0097308C008C0B0C298D0B0C29112929
:1002220083120511080083128E00051485100E0832
:100232008600051503308D0097308C008C0B1F292A
:100242008D0B1F29242983120511080083128F00A8
:1002520033290F088400000814210130CF004F0811
:1002620083128F070F08840083130008031D3A29A5
:100272003B292A29080083129000100303194229FE
:1002820043294829C0309100003092004C29803027
:10029200910000309200110893000F08CF004F0820
:1002A20093071308012108008312900191010C1C8D
:1002B2005B295C2962290E0890070318910A0F082E
:1002C2009107013003108E0D8F0DFF3E031D632930
:1002D200013003108D0C8C0CFF3E031D6A290C08A3
:1002E2000D04031D75297629582911088D0010085F
:1002F2008C0008008316850186011A308312900053
:10030200F8308F008F0B8329900B8329000038303F
:1003120001210730831290007D308F008F0B8F29CF
:10032200900B8F290F3001210130012103308312FC
:10033200900097308F008F0B9C29900B9C29A1294C
:10034200080083129900970198019601AC290130A7
:10035200CF004F0899071908840020308313000644
:100362000319B429B529A82919088400F730000710
:10037200940005301402031CBF29C029A8291908BA
:1003820084002D300006031DC729C829CF299601F4
:10039200960A0130CF004F089907F5291908840001
:1003A2002B300006031DD629D729F529CA29190899
:1003B200840018088D0017088C000A308E00003067
:1003C2008F00552183120D089500831300080C023B
:1003D2009400031C95031408303E97001508031877
:1003E200013E003E9800CA2919088400D030000757
:1003F20094000A301402031CFF29002AD829160887
:10040200031D042A052A112A1709940018099500C8
:10041200940A0319950A1408920015089300152AE4
:100422001808930017089200080083128E018F01AA
:100432000F08803ACF0080304F02031D222A043079
:100442000E02031C252A262A272AA12A10308312EB
:100452008C000E0A2E2A03108C0DFF3E031D2C2A3F
:100462000C08FF3A86000F30831686001A3083127A
:100472008D00F8308C008C0B3C2A8D0B3C2A00003E
:10048200831290019101013083128C00100A4B2AD1
:1004920003108C0DFF3E031D492A0C080605031D9F
:1004A200532A542A832A01308C00100A5A2A031034
:1004B2008C0DFF3E031D582A0C0806050319622AFB
:1004C200632A542A851182308D00DD308C008C0B1A
:1004D200682A8D0B682A6D2A83128515F0308316DF
:1004E200860083120E088C00023003108C0DFF3E32
:1004F200031D762A01300C078D0010080D078400B9
:100502000120A22A013090070318910A00309107B6
:100512001108803ACF0080304F02031D922A043026
:100522001002031C952A962A442AF030831686006C
:10053200013083128E0703188F0A00308F07192AA1
:10054200003008007B21EB201C3084001130CF00EA
:1005520083138001840ACF0BA92A8312B301DC2002
:1005620016228312B20046080319B82AB92A3F2B71
:100572003D303206031DBE2ABF2A1E2B4830A2215F
:1005820083121308AE001208AD002E08803ACF0085
:1005920080304F02031DCF2A21302D02031CD22AA4
:1005A200D32A192B83122E08803ACF0080304F02B3
:1005B200031DDD2AFF302D020318E02AE12A192B40
:1005C2000F30831233020318E72AE82A192B330863
:1005D200AF00F92A2F08FF3E1C3E84008313000857
:1005E200CF002F081C3E84004F0880000130AF026C
:1005F2002F084702031CFE2AFF2AEB2A47081C3E4B
:1006020084002D08831380000F30470203180A2B41
:100612000B2B0F2B0130CF004F08C7070F303302CF
:100622000318142B152B192B0130CF004F08B307D9
:100632008312C601C501C801E02B30303202031C0F
:10064200232B242BE02B3A3032020318292B2A2B9E
:10065200E02B0330450203182F2B302BE02B4508EB
:10066200483E84003208831380000130CF004F08D7
:10067200C5074508483E84008001E02B2B30320636
:10068200031D442B452B4A2BC601C60AC501C801CE
:10069200E02B2F303206031D4F2B502B582B4708CF
:1006A2000319542B552BE02B0130C702E02B583095
:1006B2003206031D5D2B5E2B692B3308470203189C
:1006C200632B642BE02B0130CF004F08C707E02BD0
:1006D20043303206031D6E2B6F2B9E2B4708B00052
:1006E200822B3008013E1C3E840083130008CF0099
:1006F20030081C3E84004F0880000130CF004F08B4
:10070200B00733083002031C872B882B722B330867
:1007120003198C2B8D2B8F2B0130B3023308470228
:10072200031C942B952BE02B33080319992B9A2B3E
:10073200E02B3308FF3EC700E02B32080319A22B3F
:10074200A32BE02B3D3032060319A82BA92BE02B5B
:100752000F3033020318AE2BAF2BE02B3308B1005E
:10076200C02B3108FF3E1C3E840083130008CF00DB
:1007720031081C3E84004F0880000130B10231086C
:100782004702031CC52BC62BB22B47081C3E840014
:100792003208831380000F3047020318D12BD22B6B
:1007A200D62B0130CF004F08C7070F303302031892
:1007B200DB2BDC2BE02B0130CF004F08B307D92015
:1007C200F42083128F0101303C211C302721831237
:1007D20047088F0001303C21823083129B00DD30BC
:1007E2009A009A0BF22B9B0BF22BF72BB02A0028C4
:0E07F2008313343084004C30E3208301A32AAB
:02400E00F93F78
:00000001FF
